:020000040800F2
:1000000040100020ED0100089353000851470008FC
:10001000915300082D0900086167000800000000E6
:10002000000000000000000000000000D95B000894
:10003000D70A0008000000007D5A0008CD5C0008C7
:10004000070200080702000807020008070200086C
:10005000070200080702000807020008070200085C
:10006000070200080702000807020008F10900085B
:10007000050A0008110A00081D0A00080702000806
:10008000070200080702000807020008070200082C
:10009000070200080702000807020008070200081C
:1000A000070200080702000807020008070200080C
:1000B00007020008070200080702000807020008FC
:1000C00007020008070200080702000807020008EC
:1000D0000702000807020008556700080702000829
:1000E00007020008070200080702000807020008CC
:1000F00007020008070200080702000807020008BC
:1001000007020008070200080702000807020008AB
:100110000702000807020008495D000807020008FE
:10012000070200080702000807020008070200088B
:10013000070200080702000807020008070200087B
:10014000070200080702000807020008070200086B
:10015000070200080702000807020008070200085B
:10016000070200080702000807020008070200084B
:10017000070200080702000807020008070200083B
:10018000070200080702000807020008070200082B
:10019000070200080000000007020008070200082C
:1001A000070200080702000807020008070200080B
:1001B00007020008070200080702000807020008FB
:1001C00007020008070200080702000807020008EB
:1001D0000702000807020008DFF80CD000F0EAFA76
:1001E00000480047997100084010002006488047E9
:1001F00006480047FEE7FEE7FEE7FEE7FEE7FEE70C
:10020000FEE7FEE7FEE7FEE7395D0008D9010008DA
:100210002DE9F05F0546002092469B46884606463B
:10022000814640241BE0284641464746224600F0CE
:10023000A2F953465A46C01A914110D311461846A6
:10024000224600F089F92D1A67EB01084F46224635
:100250000120002100F080F917EB00094E41201E1B
:10026000A4F10104DFDC484631462A464346BDE896
:10027000F09F40EA01039B0703D009E008C9121F61
:1002800008C0042AFAD203E011F8013B00F8013B50
:10029000521EF9D27047D2B201E000F8012B491E7C
:1002A000FBD270470022F6E710B513460A46044613
:1002B0001946FFF7F0FF204610BD2DE9FE4F80469E
:1002C00081EA0300C00F0C46009021F0004123F0AA
:1002D0000045B8EB0200A94105D2404621469046B0
:1002E0001C460B46024623F00040104347D0270D22
:1002F000C7F30A00C3F30A510290401A0190402844
:100300006BDAC3F3130040F4801B0098924620B1CF
:100310000023D2EB030A63EB0B0B01985946C0F1A3
:100320004002504600F018F906460D465046594620
:10033000019A00F030F910EB08006141002487EACF
:10034000115284EAE7731A4340D0009A62B3019ACB
:10035000012A4FEA075215DC001B61EB02014FF046
:10036000004202EA0752CDE90042001C41F580112B
:1003700032462B4600F030F903B0BDE8F08F40461E
:100380002146F9E7001B61EB0201001C41F58013D7
:1003900000185B412018A2F5001747EB030140EA63
:1003A000D570B6196D4111E06D084FEA360645EA81
:1003B000C0754FEA0752001B61EB0201001C41F5BA
:1003C000801149084FEA30000019514132462B464E
:1003D00003B0BDE8F04F00F0F0B8009801224000F3
:1003E0000023D0EB020263EBE073009821464FEA52
:1003F000E074B8EB000061EB0401E9E783F000432F
:100400005BE781F0004158E72DE9FE4F81EA0304E4
:1004100004F0004421F0004100944FF0000B23F061
:10042000004350EA01045ED052EA03045BD0C3F3F8
:100430000A54C1F30A552C44A4F2F3340194A0FBEE
:100440000254C1F3130141F48011C3F3130343F4C5
:10045000801301FB024400FB034E840A970A44EA1E
:10046000815447EA8357A4FB076802958D0A05FB70
:1004700007854FEA932C04FB0C542705029D4FEA95
:10048000065847EA1637B5EB08056EEB070C870EE2
:10049000920E47EA811742EA8312A7FB0201B6EBEC
:1004A0000B0164EB00042B0D43EA0C335E1844EBA4
:1004B0001C50DA465146E7FB0201C5F313044FEA2C
:1004C0000B3343EA14534FEA0432019C43EA060318
:1004D000A4F10C040294009CCDE900B400F07CF877
:1004E00003B0BDE8F08F00200146F9E70EB540F2F9
:1004F000334102910021CDE900110A460B4600F07C
:100500006BF803B000BD00F0004230F000400AD0AC
:10051000C10D01F56071C0F3160042EA0151C20835
:1005200040071143704700200146704730B50B4625
:10053000014600202022012409E021FA02F59D4213
:1005400005D303FA02F5491B04FA02F52844151EE7
:10055000A2F10102F1DC30BD202A04DB203A00FACE
:1005600002F1002070479140C2F1200320FA03F30A
:10057000194390407047202A04DB203A21FA02F008
:100580000021704721FA02F3D040C2F120029140CD
:10059000084319467047202A06DBCB17203A41FA58
:1005A00002F043EAE07306E041FA02F3D040C2F100
:1005B0002002914008431946704710B5141E73F18C
:1005C000000408DA401C41F1000192185B411A4313
:1005D00001D120F0010010BD2DE9F04D92469B465F
:1005E00011B1B1FA81F202E0B0FA80F22032904605
:1005F000FFF7B2FF04460F4640EA0A0041EA0B014A
:1006000053465A46084313D0114653EA010019D005
:10061000C8F140025046FFF7AEFF05460E46504671
:1006200059464246FFF798FF084305D0012004E0F1
:1006300020463946BDE8F08D0020054346EAE076C5
:100640002C4337430A986305E40AA0EB0800002214
:10065000FD0A44EA47540A3002D500200146E9E782
:10066000010510196941DDE9084500196941BDE836
:10067000F04DA2E72DE9F04D81EA030404F0004BB0
:1006800021F0004514464FF0000A23F0004150EAE3
:10069000050220D054EA01021DD0C5F30A570246D4
:1006A000C5F31303C1F31300C1F30A5640F48015D8
:1006B00043F48013A7EB0608101BD64608F2FD385A
:1006C00073EB050002D308F1010801E092185B41C9
:1006D000B8F1000F03DA00200146BDE8F08D0020DC
:1006E0004FF48011064684460EE0171B73EB050796
:1006F00005D3121B63EB050306434CEA010C4908C2
:100700004FEA300092185B4150EA0107EDD152EAFE
:10071000030012D082EA040083EA0501084305D0F1
:10072000101BAB4106D20122002306E000224FF04D
:10073000004302E06FF0010253101AEB06004CEB8D
:10074000085110EB0A0041EB0B01BDE8F04DFFF73B
:1007500034BFC1F30A52C1F3130140F2FF3341F435
:1007600080119A4202DA00200146704740F233437A
:100770009A42A2F2334202DC5242FFF7FCBEFFF77C
:10078000EBBE000030B5041E71F1000404DB4FF035
:100790000044404264EB0101141E73F1000405DBC8
:1007A0001C464FF00043524263EB0403994208BFDA
:1007B000904230BD064C074D06E0E06840F0010372
:1007C00094E8070098471034AC42F6D3FFF708FDD1
:1007D000247900084479000810B5846AE16D11F0AD
:1007E000500F06D0E16DC90625D5204600F0B6FCB5
:1007F00010BDE06D40F40070E065206801680907F5
:1008000016D504F03DF978B12068C068800400284E
:100810000ADBE06D20F48070E065E06DC00403D475
:10082000E06D40F00100E065204600F095FC10BD51
:10083000C0688007EBE7616D496BBDE81040084771
:1008400010B5806AC16D41F04001C165016E41F093
:100850000401016600F082FC10BD10B5806A00F052
:100860007CFC10BDF8B5044600200090206804F020
:10087000FBF8E8BB20688168264A114237D18168BD
:10088000D6433140491C81602068B0F1A04F02D0AE
:100890002149884201D1214800E02148806800F0C8
:1008A000E07000020DD51F481F490068B0FBF1F051
:1008B000401C00EB4000800000E0401E009000283B
:1008C000FBD101F06BFC05461DE004F0CDF820B92A
:1008D000206881683140491C816001F05FFC401B49
:1008E000022810D920680068C043C0070BD000E080
:1008F0000EE0E06D40F01000E065206E40F0010079
:1009000020660120F8BD20680168C943C907DCD111
:100910000020F8BD3F00008000010050000300509F
:100920000007005030000020400D0300FEE70000EB
:1009300070B51A4D2DED028BB5F900009FED188AA8
:10094000DFED188AF0EE480AB0EE680A06F069FD9D
:10095000154C84ED000AB5F90200DFED140A9FED95
:10096000140A06F05EFD0C3584ED010AB5F90000AD
:10097000F0EE480AB0EE680A06F053FD84ED060A70
:10098000B5F90200DFED0B0A9FED0B0A06F049FDF9
:1009900084ED070ABDEC028B70BD0000340000201E
:1009A000CDCC8CC197FF103CE80600200AD70FC2BF
:1009B000821C943C6666A9C232E62E3D024901EBD8
:1009C000800090ED000A7047E806002006490020EC
:1009D0000860091D0860091D0860091D08602021C4
:1009E0000248FFF75FBC000034000020E80600204A
:1009F00010B5034801F0CCF9BDE8104005F01AB974
:100A00001C020020014801F0C3B900007C02002054
:100A1000014801F0BDB90000DC020020014801F0EE
:100A2000B7B900003C03002010B502680E4CD1B2EB
:100A300014230839A24203D2B1FBF3F10B4A04E0BC
:100A4000B1FBF3F1094A20320831436C23F0030370
:100A50001A448264054A8032C26401F01F020121F7
:100A60009140016510BD00000804024000080240EA
:100A70000179084A01F07F0102EB81024265054AD3
:100A80004432491E826501F01F0201219140C16577
:100A900070470000FC08024030B5D0E9134565609E
:100AA000446D14B1D0E91645656090F8444004F0F7
:100AB0001F050124AC40056C6C60046863608368AA
:100AC000102B036803D099600068C26030BD9A6043
:100AD0000068C16030BD704772B6FEE710B51C21DA
:100AE0000848FFF7DFFB07489FED070A80ED030A80
:100AF0009FED060A80ED020ABDE81040002006F0D6
:100B0000E9BA000008070020295C0F3D0000004200
:100B100001498870704700000807002002490883D7
:100B2000052006F0D7BA00000807002070B51C4D5C
:100B30006869401C6861AC780020A8702978062993
:100B400029D2DFE801F0030509161D29012013E071
:100B5000012C20D102200FE0281D06F039FC95ED74
:100B6000010A104804F0C0FF287C10B9032006F0E9
:100B7000B1FA022C0FD10420BDE8704006F0AABAE9
:100B8000281D06F025FC95ED010A064804F0ACFF8F
:100B9000287C0028DAD070BD032CFCD12883D5E74F
:100BA00008070020C00B00202DE9F04F044690F804
:100BB00058009BB00D464FF0000B012812D00120C9
:100BC00084F8580000271797189720684FF0A0481E
:100BD000DFF80C91DFF80CA1434E404506D13046BA
:100BE000009608E002201BB0BDE8F08F48450AD10E
:100BF0005046CDF800A003F03FFF0090206803F0BE
:100C00003BFF40B109E0E06D40F02000E06584F872
:100C100058700120E7E7009848B1E06D40F02000EF
:100C2000E0654FF0010B84F858705846DBE7206808
:100C3000C446604501D0B04201D12C4800E02C48A8
:100C400029682C4B0029816840F61F7221F460410D
:100C500028D094F8388041EA4831D5F8048041EA38
:100C6000080181602168614501D0B14205D1DCF8FD
:100C70000810B368C1F3000109E0D9F80810DAF8E8
:100C80000860C1F30001C6F300069B683143C3F35B
:100C900000031943C7D1AB6829681943836893439C
:100CA00019431BE081602168614501D0B14205D143
:100CB000DCF80810B368C1F3000109E0D9F80810A6
:100CC000DAF80850C1F30001C5F300059B68294319
:100CD000C3F300031943A6D1816891438160A2E761
:100CE00000040050000500500001005000030050B7
:100CF00000070050000600502DE9F84F0027044679
:100D0000009790F85800DFF810840D46B946012886
:100D100010D0012684F85860206803F0A9FE58B16D
:100D2000E06D40F02000E065012784F858903846D7
:100D3000BDE8F88F0220FBE7D5E900210C232068ED
:100D400003EA91131844036B01F01F014FF01F0CCD
:100D50000CFA01FCC2F3846223EA0C038A401343B9
:100D60000363206803F084FE8246206803F078FE67
:100D70005AEA00013CD1AA6829682068B2F1004F04
:100D800037D003F085FE2068416921F000414161C0
:100D900020686A69C168C1F3C10149008A402969B4
:100DA000042931D000EB81002B68016EDFF86CC3A1
:100DB00003F0F84301EA0C011343194341F00041E9
:100DC000016622682869A96902EB8000026E22F0A0
:100DD00080720A430266297F22682869012910D09F
:100DE000002102EB8000026E22F000720A430266CC
:100DF0007DE0002203F04CFE2068416941F0004193
:100E0000C5E74FF00071ECE7002103F023FE40033B
:100E100020684FF0000171D003F01CFE90FAA0F0A2
:100E2000B0FA80F1286842036DD090FAA0F0B0FAD1
:100E300080F0814204D100221146206803F037FE81
:100E40000121206803F006FE400320684FF00101F5
:100E50005CD003F0FFFD90FAA0F0B0FA80F12868B2
:100E6000420358D090FAA0F0B0FA80F0814204D149
:100E700000220121206803F01AFE0221206803F0FD
:100E8000E9FD400320684FF0020147D003F0E2FD86
:100E900090FAA0F0B0FA80F12868420343D090FAAB
:100EA000A0F0B0FA80F0814204D100220221206833
:100EB00003F0FDFD0321206803F0CCFD4003206812
:100EC0004FF0030132D003F0C5FD90FAA0F0B0FA64
:100ED00080F1286842032ED090FAA0F0B0FA80F09A
:100EE000814204D100220321206803F0E0FD206844
:100EF00003F0BAFD10B3AAE000E004E003F0AAFD9D
:100F0000C0F384618EE7C0F3846092E703F0A2FD32
:100F1000C0F38461A3E7C0F38460A7E703F09AFD00
:100F2000C0F38461B8E7C0F38460BCE703F092FDCE
:100F3000C0F38461CDE7C0F38460D1E721682A7BE8
:100F4000286851F8B03FC0F3120C23EA0C0302F0FA
:100F5000180C734A22FA0CF2024013430B60E96842
:100F6000414574D1286841031AD090FAA0F1B1FA32
:100F700081F1491C01F01F0109294FEA403130D8A5
:100F8000002910D090FAA0F1B1FA81F101F101012C
:100F900001F01F0106FA01F608D1C0F3846109E0EF
:100FA000C0F38461E5E7C0F38461EFE790FAA0F154
:100FB000B1FA81F101F1010101F01F0146EA8161FD
:100FC00002D1C0F3846003E090FAA0F0B0FA80F0A0
:100FD00000F1010000F01F0000EB400041EA005169
:100FE00031E000290DD090FAA0F1B1FA81F101F1C0
:100FF000010101F01F0106FA01F605D1C0F3846179
:1010000006E0C0F38461F2E790FAA0F1B1FA81F151
:1010100001F1010101F01F0146EA816102D1C0F333
:10102000846003E090FAA0F0B0FA80F000F10100D3
:1010300000F01F003B4A00EB400002EB005041EA89
:10104000000141F00071AA68206803F021FD3648D4
:101050002A6802423FF469AE20684FF0A04C334D3D
:10106000334B344E604501D0A84201D1194600E00F
:1010700031468968DFF8C08001F0E071424503D055
:10108000DFF8B880424521D15FEA01281ED46045CF
:1010900006D02B4A90427FF448AEA84200D0334697
:1010A00041F40000996821F0E071014399602548FE
:1010B00025490068B0FBF1F0401C00EB40008000C7
:1010C00000E0401E00900028FBD12EE6DFF87C8077
:1010D00042450DD15FEAC1180AD4A842F5D01C4A96
:1010E0009042F2D0604500D0334641F080700CE071
:1010F000DFF860804245E8D14A02E6D4A842E4D055
:10110000604500D0334641F48000996821F0E071D9
:101110000143996009E6000000007F4000F0FF03F2
:10112000FFFF0700000020FE0000088000010050C3
:101130000003005000070050000021C31000C090C1
:101140000006005030000020400D0300000052C790
:1011500000050050000084CB7047704770470000C6
:10116000F8B54FF0000504002E46009502D0E06D62
:1011700010B107E00120F8BD204600F00BF926660B
:1011800084F8586020688168C1F3407119B18168A2
:10119000744A1140816020688168C1F3007189B987
:1011A0008168714A114041F0805181606F487049F7
:1011B0000068B0FBF1F04000801C00E0401E009091
:1011C0000028FBD120688168C1F3007141B9E16D4D
:1011D00041F01001E165216E41F001012166012518
:1011E00003F046FCE16DC90600D430B1E06D40F07B
:1011F0001000E06501252846F8BDE06D20F4807000
:1012000040F00200E065206803F02EFC40BB20683F
:101210004FF0A043574A984201D0904204D19968B8
:101220009668C1F300010AE053498968534EC1F33F
:101230000001B668C6F300063143514EB668C6F3E6
:10124000000631430CD1984201D0904201D14D4863
:1012500000E04D486168826822F47C120A43826093
:10126000E168E06B627F0843A16841EA42310843CC
:1012700094F8241040EA0140012904D1218D434A09
:1012800002EB41410843E16A29B101F47871226B14
:10129000014342EA01002168CA683D4B1A400243FB
:1012A000CA6020680169626B21F0406111430161ED
:1012B000206803F0D5FB70BB207F94F838108003C2
:1012C00040EA41012068C26844F202039A430A439B
:1012D000C26020690028206801690AD041F4803189
:1012E0000161206850F8C01F22696FF30D0111439E
:1012F00007E021F480310161206850F8C01F6FF3CE
:101300000D01016094F84000012813D020680169A4
:1013100021F001010161606901282068016B19D089
:1013200021F00F010163E06D20F0020040F00100A8
:10133000E06560E7D4E911200243D4E913010843D2
:1013400002432068016940F2FC7399430A4342F06A
:101350000101DFE721F00F02216A491E0A430263FF
:10136000E1E70000C0FFFF5FC0FFFF7F300000200B
:10137000400D030000010050000400500005005023
:101380000006005000030050000700500000FEFF60
:101390000740F0FF2DE9F04F9BB00446142115A83B
:1013A000FEF780FF54216846FEF77CFF4FF40042B1
:1013B0002068002691039F4F9F4D4FF003084FF088
:1013C00080094FF4807A4FF4806BB0F1A04F10D0B9
:1013D0009A4B98427ED168460092119101F0A4FB8D
:1013E00008B1FFF779FB3868401C3860012848D005
:1013F0004FE068460092119101F096FB08B1FFF7AB
:101400006BFB3868401C3860012807D1E86C40F459
:101410000050E864E86C00F400501A90E86C40F06A
:101420000400E864E86C00F004001A90E86C40F0F6
:101430000100E864E86CCDF8548000F00100CDE9CB
:1014400016861A90454615A97D4800F0B9FDCDE9EC
:10145000165615A94FF09040159500F0B1FD7A4D44
:10146000784828600520C5E901062020C5E906B0B6
:10147000000228622846D1E06565AC621BB0BDE879
:10148000F08FE86C40F40050E864E86C00F4005021
:101490001A90E86C40F00400E864E86C00F0040086
:1014A0001A90E86C40F00100E864E86C15A900F0BF
:1014B00001001A900C20454681E86100604800F068
:1014C0007FFD15A9C02081E861004FF0904000F039
:1014D00077FD00E00FE05B485B4D1430603528601D
:1014E0002420C5E901062020C5E906B04FF440508C
:1014F0002862284692E0554B9901CA03984245D18B
:1015000068461292009101F00FFB08B1FFF7E4FA70
:101510007868401C7860012807D1E86C40F480406E
:10152000E864E86C00F480401A90E86C40F0100029
:10153000E864E86C00F010001A90E86C40F00800D5
:10154000E864E86C15A900F008001A904FF44060B8
:10155000454681E861003E4800F032FD15A94FF490
:10156000C04081E861003B4800F02AFD3548364D17
:101570002830C03528602520C5E901062020C5E9AE
:1015800006B04FF440502862284647E0324B98425C
:101590007FF474AF68461292009101F0C5FA08B169
:1015A000FFF79AFA7868401C7860012807D1E86C48
:1015B00040F48040E864E86C00F480401A90E86CE5
:1015C00040F01000E864E86C00F010001A90E86C3D
:1015D00040F00800E864E86C15A900F008001A90D3
:1015E0004FF44040454681E86100194800F0E8FCAE
:1015F00015A94FF4C05081E86100164800F0E0FCE6
:101600001048164D3C3028602620C5E901062020F0
:10161000C5E906B04FF440502862284605F10C0198
:1016200081E8400600F012FC00283FF425AFFFF7E8
:1016300053FA21E71C000020001002400001005076
:1016400000080048080002401C020020000400506E
:1016500000100048000C0048000500503C0300202A
:101660002DE9F047044600684FF0A0483D4F9146F1
:101670008A46404501D0B84201D13B4900E03B4990
:10168000896801F01F0503F0F3F9002868D194F888
:101690005800012864D0012084F85800344920689B
:1016A000884201D1012000E00020401E28424FF076
:1016B000000605D0052D03D0092D01D0012003E03F
:1016C0002046FFF7CFF818B184F85860BDE8F087DE
:1016D000E06D40F60161884340F48070E065206869
:1016E000B84201D1414605E02249884201D1224950
:1016F00000E00146814200D01DB9E06D20F4801069
:10170000E065E06DC00404D5206E20F00600206680
:1017100000E02666616D1948C862616D184808636B
:10172000616D1848486321681C20086084F858607F
:101730002068416841F0100141602068C16841F0B3
:101740000101C16021684B4652464031606D00F096
:10175000DFFB21688A680C4B1A40121D8A60B5E7CE
:101760000220B3E7000100500003005000070050C2
:10177000000600500005005000040050D907000882
:101780005B08000841080008C0FFFF7F2DE9F84F03
:1017900004004FF000000546009003D0216809685E
:1017A000002901DA0125F6E0617F21B92077206266
:1017B000204600F005F920680168E66801F400029F
:1017C000D4E9013119436369334319432369194348
:1017D0000368724E33400B430360236818680002AD
:1017E0000ED56AB96E486F490068B0FBF1F0401C35
:1017F00000EB8000800000E0401E00900028FBD13C
:10180000694A69481432834202D14FF400101EE045
:101810006548001D834202D14FF4800017E0624802
:101820000830834201D1800611E05F480C308342CA
:1018300002D14FF080400AE05B481030834201D172
:10184000C00604E0934201D1012000E00220A1691A
:10185000564E8A465FEA8178554F5649A6F1040CE8
:10186000A7F1040978D05FEACA6806F1040A07F113
:10187000040B0AD5934201D08B4201D1D04600E03F
:10188000D846D8F80030034309E0934201D08B4298
:1018900001D1D04600E0D846D8F800308343C8F8DC
:1018A0000030237EDFF810819B06DFF810A123684B
:1018B00008D5934202D08B4200D0D046D8F80030F1
:1018C000034307E0934202D08B4200D0D046D8F8C1
:1018D00000308343C8F800302368934201D08B4224
:1018E00002D1354B083301E0344B08331860237EB6
:1018F0009B07236809D5934201D08B4202D13368FC
:10190000034308E03B68034309E0934201D08B4264
:1019100003D133688343336002E03B6883433B6019
:10192000237EDB0723680CD0934201D08B4203D186
:10193000DCF80010014322E0D9F8002049460243B8
:1019400024E0934218D08B4216D0D9F8001081437E
:10195000C9F800101BE0FFE7934201D08B4203D18E
:1019600033688343336002E03B6883433B60236812
:10197000934201D08B4205D1DCF800108143CCF8B2
:10198000001004E0D9F80020494682430A60607FD5
:1019900008B9012060772846BDE8F88F0F7E00FF68
:1019A00030000020400D03000002014024040140EB
:1019B00004040140180201402C0401400C040140C1
:1019C00010B586B0044614216846FEF76BFC0C493E
:1019D0002068884212D10B48C16C41F01001C164EB
:1019E000C06C694600F01000059080200090032034
:1019F000019000200290044800F0E2FA06B010BD09
:101A00000C02014000100240001000487047000026
:101A10002DE9F04790460D4604004FF0000A0FD024
:101A200075B1607901280ED04FF0010984F8059056
:101A300002202071A96808F01006042905D049E0A9
:101A40000120BDE8F0870220FBE700F0A7FB074676
:101A50005FEA08004FF0030809D021E000F09EFB88
:101A6000C01B012803D92068406B000410D42068F3
:101A7000406B0004F2D42168686A086417E000F043
:101A80008DFBC01B01280BD92068406B002807DAAA
:101A9000206940F00800206184F804800320D0E72A
:101AA0002068406B0028EADB2168686A4864206887
:101AB000816C40F2FF32B2409143AA6AB2401143B6
:101AC00081642068C16CFF22B2409143EA6AB2404F
:101AD0001143C164E869012808D12068826B1F2185
:101AE000B1408A43296AB140114381632068C26BC7
:101AF0000720B0408243A869012803D0022856D0AD
:101B00006869E8B300206B69A968194301434FF481
:101B1000807000FA06F39A432B79012B00D0002045
:101B200008434FF4007101FA06F39A436B79012BD5
:101B300000D0002141EA0008286822F4404702282A
:101B400037D00743216808FA06F03843C863206895
:101B500001684FF48042B2409143016020680268FE
:101B600040F6FE71B1408A43E968B140114301601B
:101B700020680168C022B24091430160287B00E0E8
:101B800015E0297CC0F3830001F03C0140EA81119B
:101B90002068026E40F60F73B3409A43B1400A4387
:101BA000026684F8049000206071504649E70120E5
:101BB000A9E701F033FA0649884202D947F4004701
:101BC000C0E704498842BDD947F48047BAE700001E
:101BD0000068890900B4C40470472DE9F041044647
:101BE00000680668456BB1044FF0040710D5A904DE
:101BF0000ED52771216941F001012161F90241638C
:101C00002068016821F4805101602046FFF7E4FF5D
:101C1000B00014D5A80012D52771206940F0020049
:101C2000206121684FF0005048632068016821F06E
:101C3000805101602046BDE8F041FFF7E7BEBDE8F6
:101C4000F08170B5040003D02079002510B105E0C3
:101C5000012070BD6571204600F008F80220207157
:101C6000256101202071002070BD000008B50068CA
:101C70000B49884212D10B48C16C41F48031C164D8
:101C8000C06C002200F4803000900221362000F069
:101C9000B3FEBDE80840362000F0A0BE08BD00003D
:101CA000000800500010024010B5002140B190F82B
:101CB00025200123022A05D00421C163012124E04B
:101CC000012010BD0268146824F001041460026849
:101CD000146824F00E041460826C146824F4807478
:101CE000146090F84420046C02F01F0203FA02F220
:101CF0006260D0E913245460426D32B1146824F458
:101D000080741460D0E91624546080F825300022D5
:101D100080F82420084610BD70B590F825100024E6
:101D200001222346022907D00421C16380F825201F
:101D300080F82430012429E001680D6825F00105B0
:101D40000D6001680D6825F00E050D60816C0D6851
:101D500025F480750D6090F84410154601F01F01C0
:101D60008A40016C4A60D0E913124A60416D31B17A
:101D70000A6822F480720A60D0E916124A6080F87C
:101D8000255080F82430816B01B18847204670BD12
:101D9000F0B4016C0B6801680A6890F844400425AF
:101DA00004F01F0405FA04F61E4211D056070FD5A1
:101DB0000A68920603D40A6822F004020A6090F8C6
:101DC000441001F01F018D40016C4D60016B1DE05E
:101DD000022606FA04F71F424FF0000C4FF00105EF
:101DE00018D0970716D50A68920605D40A6822F01B
:101DF0000A020A6080F8255090F8441001F01F0193
:101E00008E40016C4E6080F824C0C16A00291AD04F
:101E1000F0BC08470826A6401E4214D0120712D56F
:101E20000A6822F00E020A6090F84410026C01F079
:101E30001F0105FA01F15160C56380F8255080F853
:101E400024C0416BE2E7F0BC7047000070B50400AD
:101E50000CD02C4A20681421904209D22A4A02440C
:101E6000B2FBF1F18900616428490AE0012070BDEC
:101E7000244A52420244B2FBF1F1890061642149D3
:101E800008392164022184F82510016847F6F072B0
:101E90009143D4E902231A43D4E904352B431A436E
:101EA000A3691A43E3691A43236A1A430A43026087
:101EB0002046FEF7B9FDA0680025B0F5804F00D19F
:101EC00065602079A16C00F07F000860D4E91301FF
:101ED00041606068401E032808D82046FEF7C8FD10
:101EE000606D0560D4E91601416002E06565A56595
:101EF000E565E563012084F8250084F8245000207E
:101F000070BD000008040240F8FFFDBF0000024061
:101F100070B5044690F82400002501280CD001205B
:101F200084F8240094F825600020012E06D084F85F
:101F300024000225284670BD022070BD022684F8C8
:101F40002560E0632068066826F0010606602046EA
:101F5000FEF7A2FD206B00282068016802D041F046
:101F60000E0106E021F0040101602068016841F0E3
:101F70000A010160A06C0168C90303D5016841F43E
:101F800080710160606D18B1016841F48071016079
:101F90002068016841F001010160CBE770B504469B
:101FA00000F0FCF80546601C02D004484068044478
:101FB00000F0F4F8401BA042FAD370BD24000020CA
:101FC0002DE9F84FDFF890910022A9F1040B0327C7
:101FD0004FF00F0C09F1040AABF1040EB4E0012537
:101FE00095402B406FD00C7904F00304012C01D0F4
:101FF000022C15D18668540007FA04F826EA080670
:10200000D1F80C8008FA04F848EA0608C0F80880FD
:102010004468AC430D79C5F30015954025434560F0
:102020000C79E443A40702D18C68012C08D0C56860
:10203000540007FA04F6B5438E68A6402E43C660E6
:102040000C7904F00304022C11D1D40800EB8406AF
:10205000356A5407E40E0CFA04F825EA0805D1F8AD
:10206000108008FA04F848EA0508C6F820800568D8
:10207000540007FA04F6B5430E7906F00306A640AD
:102080002E4306604C6814F4403F5CD0334C256E00
:1020900045F001052566246E22F0030504F00104D5
:1020A00000942F4C05EB0408D8F808509407260F2D
:1020B0000CFA06F4A543B0F1904F05D0294CA0428C
:1020C00004D1012417E03EE0002414E0264CA04295
:1020D00001D102240FE0254CA04201D103240AE0E3
:1020E000234CA04201D1042405E0224CA04201D19E
:1020F000052400E00624B4402C43C8F80840D9F871
:1021000000404D464E689C43F60200D51C432C60AF
:10211000DAF8004055464E689C43B60200D51C4391
:102120002C60DBF800405D464E689C43B60300D54A
:102130001C432C60DEF8004075464E689C43F60355
:1021400000D51C432C60521C0B6833FA02F47FF458
:1021500046AFBDE8F88F00000804014000100240BF
:10216000000001400004004800080048000C00483E
:1021700000100048001400480069084000D0012009
:102180007047426921EA02030A4043EA0241816141
:1021900070470AB181617047816270470148806869
:1021A000704700002400002010B590F8DC20012AC0
:1021B00021D0012380F8DC30022280F8DD204A1C87
:1021C0001BD00268D2F8CC4344F00204C2F8CC43DE
:1021D0000268D2F8CC4324F00C040C43C2F8CC4380
:1021E0000168D1F8CC2342F00102C1F8CC2380F879
:1021F000DD30002010BD022010BD0168D1F8CC23D5
:1022000022F00202C1F8CC23EAE7000038B504004E
:1022100055D0022084F8DD000025C4F8E050C4F851
:10222000E450C4F8E850C4F8EC50C4F8F050C4F8D6
:10223000F450C4F8F850207AC0071BD02149206818
:10224000884208D12048016E41F080610166006E2D
:1022500000F08060009020680168228A21F44041EB
:1022600002F440420A43A18A22F4405201F4405150
:1022700011430160204600F029F8207A800708D534
:102280002068016821F44072A18901F44071114372
:102290000160012084F8DD0084F8DC500021C1EBEE
:1022A000C10004EB8000491C8561C561056245627F
:1022B0008562C9B205630629F1D9002038BD012025
:1022C00038BD0000006801400010024008B50068F9
:1022D0000649884208D10648016E41F080610166D6
:1022E000006E00F08060009008BD000000680140B2
:1022F0000010024070B586B0044614216846FDF710
:10230000D1FF17492068884228D11648C16C41F096
:102310000201C164C16C01F002010591C16C41F080
:102320000401C164C06C022500F0040005904FF464
:10233000805000268DE8610003240D20CDE9034084
:1023400069460948FFF73CFE2002CDE90005CDE9CA
:102350000264694604940548FFF732FE06B070BD7A
:1023600000680140001002400004004800080048D6
:1023700070B50C460546FFF711FF064607E0601CE6
:1023800005D0FFF70BFF801BA0420DD864B1286871
:10239000D0F88803C043C003F1D4012085F8DD00E4
:1023A000002085F8DC0070BD072085F8DD000320E3
:1023B00070BD70B590F8DD30022B23D0022380F879
:1023C000DD30062920D08024036804EBC1141D5998
:1023D00025F007069568354325F01806D56835437E
:1023E0001D519425046805EBC115136863519824A9
:1023F000036804EBC11152685A50012180F8DD10C6
:10240000002070BD022070BD01680B6823F0070436
:1024100093682343D46823F018031C430C600368BB
:1024200011685961516802689161E6E72DE9F04F42
:1024300090F8DD40022C25D090F8DC40012C21D012
:102440004FF0010980F8DC90022480F8DD40072776
:102450000026062919D09C2404EBC11C012A3AD07D
:10246000A8244FF0800804EBC1154FF4005A4FF434
:10247000405B08EBC114022A2FD0042A41D0082A5D
:102480000BD140E00220BDE8F08F012A0AD0022AD9
:102490000CD0042A0ED0082A10D080F8DD7080F805
:1024A000DC600EE002681968D1610AE00268196810
:1024B000516206E002681968916202E002681968D8
:1024C000D16290F8DD10072942D080F8DD9080F8C5
:1024D000DC600020D7E719682EE04FF0A4080768F9
:1024E00008EBC1111A687A505968002901680A5925
:1024F00022F440522AD00A5101680A595F683A43CF
:1025000015E019681FE04FF0AC08076808EBC1112F
:102510001A687A505968002901680A5922F4404221
:1025200014D00A5101680A595F6842EA87020A51C9
:102530005968514504D19968026842F80C10C0E707
:102540005945BED1996802685151BAE70A51B8E7B6
:10255000012098E72DE9F041044690F8DD0015468A
:102560000E46022826D094F8DC00012821D001274D
:1025700084F8DC70022084F8DD00062E1CD0204692
:1025800002F01CF8C6EBC60004EB8000296801626B
:1025900069684162A9688162E968C1622969016369
:1025A0003146204601F08DFF062E15D0E86A40B175
:1025B00012E00220BDE8F0811146204601F0B5FF8F
:1025C000E0E78021206801EBC6114258EB6D22F450
:1025D000007242EA4322425084F8DD70002084F801
:1025E000DC00E7E790F84120202A24D190F8402031
:1025F000012A20D0012280F84020242280F84120A6
:102600000268136823F0010313600268136823F45F
:1026100080531360026813680B43136001680A68F3
:1026200042F001020A60202180F84110002180F868
:102630004010084670470220704790F84120202A39
:1026400022D190F84020012A1ED0012280F840209B
:10265000242280F841200268136823F001031360EC
:102660000268136823F4706343EA01211160016872
:102670000A6842F001020A60202180F8411000211E
:1026800080F84010084670470220704770B504007B
:1026900004D094F84100002510B106E0012070BD7F
:1026A00084F84050204600F0F5F8242084F84100DA
:1026B0002068016821F0010101606068216820F054
:1026C000706008612068816821F400418160E068E1
:1026D0000128A06830D040F4044021688860E06898
:1026E0000228206841682AD021F4006141602068F6
:1026F0004168144A114341602068C16821F40041D7
:10270000C160D4E904010843A16940EA01202168BD
:10271000C860D4E90701084321680860206801689F
:1027200041F0010101606564202084F841002563C7
:1027300084F84250002070BD40F40040CDE741F4E1
:102740000061D3E7008000022DE9FF4F81B004460D
:1027500090F84100DDF838B01F46904620287AD125
:1027600094F84000012876D0012084F84000FFF75B
:1027700015FD0646012200901923D103204602F0E0
:1027800095F8002852D1212084F84100102084F8C7
:10279000420000256564C4F8248067856563608D08
:1027A0003A49FF274FF080794FF0007AFF2802D98D
:1027B00027854B4605E0608D208500045346000CBC
:1027C00010D0226898F800009062606A401C606235
:1027D000608D401E6085208D401E2085401CC2B249
:1027E000009101E0002200912046029902F046F893
:1027F00013E002F0C3F8C8B9606A21680078886203
:10280000606A401C6062608D401E6085208D401EA5
:1028100080B22085618D01B160B1608D32460028A3
:1028200059462046E5D102F07EF8E0B1012005B01E
:10283000BDE8F08F5B46002280212046009602F022
:1028400035F80028F2D1608DFF2805D927853A4652
:102850004B460095C8E716E0608D2085009594F8FA
:1028600028205346C0E720682021C16120684268C3
:10287000074B1A40426084F8411084F8425084F8B3
:1028800040500020D3E70220D1E700000020008064
:1028900000E800FEF0B59BB00446142115A8FDF732
:1028A00001FD54216846FDF7FDFC2049206888425F
:1028B00039D14020002500900795684600F034F992
:1028C00008B1FEF709F91A4CE06C40F00100E06431
:1028D000E06C00F001001A90E06C40F00200E0644F
:1028E000E06C122700F002001A9004264FF400401A
:1028F000CDE91675CDE91856159015A9B806FFF75C
:102900005FFB8020CDE91675CDE91856159015A905
:102910000848FFF755FBA06D40F40010A065A06DBE
:1029200000F400101A901BB0F0BD000000540040ED
:1029300000100240000400480248816842681144C7
:10294000816070472400002010B50024032000F0AF
:1029500073F80F2000F008F808B1012401E000F03E
:1029600025F8204610BD000070B50E4E0546002427
:10297000706898B14FF47A71B1FBF0F00A490968B8
:10298000B1FBF0F000F0A4FD40B9102D06D20022FA
:102990002946501E00F030F8356000E00124204642
:1029A00070BD000024000020300000200A4882B0E2
:1029B000016E41F001010166016E01F0010100911B
:1029C000816D41F080518165806D00F080500090F4
:1029D00002B000F0A1B8000000100240002809DB9E
:1029E00000F01F02012191404009800000F1E02029
:1029F000C0F8001170470000F0B40E4B1B68C3F321
:102A00000223C3F10704042C00D904241D1D072D43
:102A100001D2002300E0DB1E012606FA04F56D1E3C
:102A20000D409D409E40761E164045EA0601F0BCD2
:102A300003F0ACBE0CED00E0064A00F007011068A0
:102A40004FF6FF03184040EA012003490843106095
:102A5000704700000CED00E00000FA052B492C4BFC
:102A60000A6832214A432B4940B1B0F5007F08681B
:102A700029D020F4C06040F480602CE00868C0F3E6
:102A80004120022804D051F8800F20F4807022E009
:102A9000D1F8800020F48070C1F88000086820F42C
:102AA000C06040F400700860B2FBF3F0401C00E02E
:102AB000401E4A69520501D50028F9D148694005F0
:102AC0000AD503207047C0F34120022806D051F8F0
:102AD000800F40F48070086000207047D1F88000BB
:102AE00040F48070C1F88000086820F4C06040F4B1
:102AF00000700860B2FBF3F0401C00E0401E4A6921
:102B00005205DBD50028F9D1D8E7000030000020BD
:102B100040420F00007000400248816841F480414B
:102B200081607047007000402DE9F84F0446002690
:102B30000068C14D374600035DD5A86D4FF0000910
:102B4000C00009D4A86D40F08050A865A86D4FF072
:102B5000010900F080500090DFF8E0A2DAF80010E0
:102B600041F48071CAF80010FFF718FB804607E0B7
:102B7000FFF714FBA0EB0800022801D9032632E07E
:102B8000DAF80000C005F3D56EBBD5F8900010F45C
:102B9000407014D0216D814211D0D5F89000D5F845
:102BA000901020F4407041F48031C5F89010D5F8B1
:102BB000901021F48031C5F89010C5F89000C0073E
:102BC0007ED0FFF7EBFA804641F2883A05E0FFF746
:102BD000E5FAA0EB08015145D0D8D5F89000800760
:102BE000F5D5002E6CD03746B9F1000F03D0A86D93
:102BF00020F08050A8652078C00707D0D5F888005D
:102C0000616820F003000843C5F888002078800739
:102C100007D5D5F88800A16820F00C000843C5F856
:102C200088002078400707D5D5F88800E16820F0B3
:102C300030000843C5F888002078000707D5D5F88C
:102C40008800216920F0C0000843C5F8880020787A
:102C5000C00607D5D5F88800616920F440700843A4
:102C6000C5F888002078800607D5D5F88800A169C6
:102C700020F440600843C5F888002078400607D556
:102C8000D5F88800E16920F440500843C5F8880071
:102C90002078000607D5D5F88800216A20F4404046
:102CA0000843C5F888002088C00507D5D5F88800F6
:102CB000616A20F440300843C5F88800206800E0CD
:102CC00024E0800307D5D5F89C00A16A20F003001A
:102CD0000843C5F89C002088800507D5D5F88800F2
:102CE000E16A20F440200843C5F8880020884005A8
:102CF00019D5D5F88800216B20F440100843C5F899
:102D00008800206BB0F5801F09D00CE0D5F890004A
:102D1000216D20F440700843C5F8900064E7E8682E
:102D200040F48010E860208800050FD5D5F88800B1
:102D3000616B20F440000843C5F88800606BB0F573
:102D4000800F03D1E86840F48010E8602088C00458
:102D50000FD5D5F88800A16B20F040700843C5F866
:102D60008800A06BB0F1807F03D1E86840F4801048
:102D7000E860208881044FF000600ED5D5F88810F7
:102D8000E26B21F040611143C5F88810E16B81428C
:102D900003D1E96841F48011E960218849040ED526
:102DA000D5F88810226C21F040611143C5F88810D5
:102DB000216C814203D1E86840F48010E8602088EB
:102DC00000040FD5D5F88800616C20F0405008430E
:102DD000C5F88800606CB0F1805F03D1E86840F40A
:102DE0008030E8602068C0030FD5D5F88800A16C5A
:102DF00020F040400843C5F88800A06CB0F1804F37
:102E000003D1E86840F48030E860206840030FD5C3
:102E1000D5F89C00E16C20F440100843C5F89C00F4
:102E2000E06CB0F5001F03D1E86840F48010E86062
:102E30003846BDE8F88F00000010024000700040E6
:102E40002DE9F0470D4604004FF0000725D0DFF8CC
:102E5000AC91D9F8000000F00F00A8420CD2D9F8CC
:102E6000001021F00F012943C9F80010D9F8000023
:102E700000F00F00A84210D12168614EC80741F24E
:102E8000883A58D06068DFF87C81032808D002288F
:102E900030682CD0400500282BDB0120BDE8F087EE
:102EA00030688001F9D5F06800F00302F068C0F3E3
:102EB0000310401C032A18D0534AB2FBF0F0F2680A
:102EC000C2F306225043F268C2F34162521C520020
:102ED000B0FBF2F0404517D9B06810F0F00F0CD0FD
:102EE000880711D5A06840B10EE0484AE5E78003A5
:102EF000D1E700F0BDF8404506D9B06820F0F000F9
:102F000040F08000B0608027B068616820F0030066
:102F10000843B060FFF742F9804605E0FFF73EF94D
:102F2000A0EB080151453BD8B068616800F00C0087
:102F3000B0EB810FF2D12068810714D5400703D58B
:102F4000B06840F4E060B0602078000705D5B06854
:102F500020F4605040F4E060B060B068A16820F0F8
:102F6000F000084304E0802F03D1B06820F0F000A7
:102F7000B060D9F80010484601F00F01A94217D9F6
:102F80000168C84621F00F0129430160FFF706F9E7
:102F90000746D14606E0FFF701F9C11B494501D9B3
:102FA00003207BE7D8F8000000F00F00A842F2D120
:102FB0002078400705D5B068E16820F4E060084358
:102FC000B0602078000706D5B068216920F4605011
:102FD00040EAC100B06000F04BF8B1680C4AC1F3A0
:102FE0000311515C01F01F01C8400A4908600A48FA
:102FF0000068BDE8F047FFF7B7BC000000200240C2
:103000000010024000B4C4040024F40000127A004E
:103010005C74000830000020240000200148006893
:1030200070470000300000200548064900688968A4
:10303000054AC1F30221515C01F01F01C8407047ED
:1030400030000020001002406C740008054806495A
:1030500000688968054AC1F3C221515C01F01F0173
:10306000C840704730000020001002406C74000817
:10307000184A10B59068C0F38101174801290BD098
:1030800091684410C1F38101022906D09168C1F30F
:103090008101032903D0002010BD204610BDD16856
:1030A00001F00303D168C1F30311491C032B02D0C3
:1030B000B0FBF1F001E0B4FBF1F0D168C1F30621FF
:1030C0004843D168C1F34161491C4900B0FBF1F0AC
:1030D00010BD0000001002400024F4002DE9F84368
:1030E000040078D02078F54DC00745D0A868E9687D
:1030F00000F00C0001F003010C2802D0082817D0C2
:1031000001E0032914D06068B0F5803F17D0B0F516
:10311000A02F286817D020F480302860286820F479
:10312000802028606068D8B1FFF738F8064613E0C1
:103130002868800320D560680028D2D01CE0286869
:1031400040F48030EDE740F480202860F7E7FFF797
:1031500025F8801B64286ED828688003F7D50BE01B
:10316000FFF71CF8064604E0FFF718F8801B6428F8
:10317000F1D828688003F7D4207880074BD5A86859
:10318000E96800F00C0001F003010C2802D00428CB
:103190000DD001E002290AD0E068002828682BD071
:1031A00040F480702860FEF7F9FF064619E02868B1
:1031B000400502D5E068002893D06868217C20F0A3
:1031C000FE4040EA01606860BD480068FFF7CCFB44
:1031D000002800D11FE06DE1FEF7E0FF801B022810
:1031E000B9D828684005F7D56868217C20F0FE40F2
:1031F00040EA016068600EE020F480702860FEF70D
:10320000CDFF064604E0FEF7C9FF801B0228A2D8C6
:1032100028684005F7D42078000728D56069002881
:10322000D5F8940012D040F00100C5F89400FEF7E4
:10323000B5FF064605E08FE0FEF7B0FF801B0228D1
:1032400089D8D5F894008007F6D510E020F0010069
:10325000C5F89400FEF7A2FF064604E0FEF79EFFC5
:10326000801B022878D8D5F894008007F6D42078FF
:10327000400761D5A86D0027C00008D4A86D40F0B4
:103280008050A865A86D012700F0805000908D48FF
:103290000168C90511D40168804641F4807101605C
:1032A000FEF77CFF064604E0FEF778FF801B02284D
:1032B00052D8D8F80000C005F6D5A068012815D06E
:1032C0000528D5F8900016D020F00100C5F8900030
:1032D000D5F8900020F00400C5F89000A06841F2F5
:1032E0008838B8B1FEF75AFF06460EE0D5F89000D0
:1032F00040F00100F0E740F00400C5F89000F5E769
:10330000FEF74CFF811B414526D8D5F89000800779
:10331000F6D50CE0FEF742FF064604E0FEF73EFF5E
:10332000811B414518D8D5F890008007F6D41FB10D
:10333000A86D20F08050A8652078800628D5A06967
:103340000028D5F8980012D040F00100C5F8980088
:10335000FEF724FF064605E072E0FEF71FFF801B24
:1033600002286DD8D5F898008007F6D510E020F037
:103370000100C5F89800FEF711FF064604E0FEF7CD
:103380000DFF801B02285BD8D5F898008007F6D483
:10339000E069E8B3A968C1F3810103295BD0022881
:1033A000286820F08070286003D0FEF7F7FE0446FE
:1033B00049E0FEF7F3FE064604E0FEF7EFFE801B51
:1033C00002283DD828688001F7D4F4E908016FF09D
:1033D0000F0202EB01110843218A5204490802EB53
:1033E0004151A26841EA02210843217D4FF07E420B
:1033F000490802EB41610843217B40EAC160E9686A
:10340000314A11400843E860286840F0807000E0CD
:1034100052E02860E86840F08070E860FEF7BEFE89
:10342000044604E0FEF7BAFE001B022808D828680C
:103430008001F7D540E0FEF7B1FE001B022802D95B
:103440000320BDE8F88328688001F4D4E8681F49A8
:103450000840E86030E00128F3D0E868226A00F014
:103460000301914226D1616A00F0F002090110398E
:1034700091421FD1A26A00F4FE41B1EB022F19D193
:1034800094F82C2000F07841B1EBC26F12D1218E5C
:1034900000F4C00249084905A1F50011914209D183
:1034A00094F8341000F0C06049084906A1F1007199
:1034B000814201D00120C4E70020C2E70010024091
:1034C00024000020007000400C809F01FCFFEEFEF5
:1034D00010B5401EB0F1807F01D3012010BD4FF028
:1034E000E02460610F21601703F050F90020A06113
:1034F00007202061002010BD704770477047000012
:1035000030B590F83C20012A45D0012280F83C20BB
:10351000CA688B6822F440721A434B6822F48062B6
:103520001A430B6822F400621A430B6922F480529A
:103530001A434B6922F400521A430B6B22F4804267
:103540001A430B8B22F4702242EA0342CB6922F029
:1035500080521A43114D03680024AB4205D0104D30
:10356000AB4202D00F4DAB4210D10D8D22F4700250
:1035700042EA05520D6A22F080722A434D6A22F017
:1035800000722A43C96A22F000520A435A6480F842
:103590003C40002030BD022030BD0000002C014026
:1035A00000340140005001407047704770470000F0
:1035B000F0B590F83C20012A43D0012580F83C501A
:1035C000022280F83D2003685A689C681E4E1F4FF7
:1035D000DFF87CC0B34203D0BB4201D0634504D1C5
:1035E00022F4700E4A6842EA0E02DFF868E002EA4E
:1035F0000E02D1F800E04EEA020EC3F804E00268C1
:10360000B24212D0B2F1804F0FD0134B9A420CD07D
:10361000124B9A4209D0124B9A4206D0BA4204D0B9
:10362000104B9A4201D0624504D1896824F080038E
:103630001943916080F83D50002180F83C10084605
:10364000F0BD0220F0BD0000002C0140003401401C
:10365000005001408FFFFFFD0004004000080040C3
:10366000000C00400040014010B5044649B1042957
:103670000AD008290BD094F8470001280AD001206D
:1036800010BD94F84400F8E794F84500F5E794F885
:103690004600F2E70220A9B3042937D0082938D020
:1036A00084F847000422206802F0D7FB2068416CB0
:1036B00041F40041416418492068884214D0B0F1B7
:1036C000804F11D0154988420ED0154988420BD041
:1036D0001449884208D01449884205D013498842C9
:1036E00002D01349884207D18168124A1140062945
:1036F00006D0B1F5803F03D0016841F001010160BF
:10370000002010BDFFE784F84400CBE784F84500B3
:10371000C8E784F84600C5E7002C014000040040DB
:1037200000080040000C004000340140004001400F
:103730000050014007000100704710B5040003D09D
:1037400094F83D0010B107E0012010BD002084F87E
:103750003C00204600F022F8022084F83D00211DA4
:10376000206802F0FFFA012084F8480084F83E0047
:1037700084F83F0084F8400084F8410084F8420057
:1037800084F8430084F8440084F8450084F8460037
:1037900084F8470084F83D00002010BD08B500689B
:1037A0000B49884212D10B48816D41F010018165AF
:1037B000806D002200F01000009002213620FFF7FB
:1037C0001BF9BDE808403620FFF708B908BD000026
:1037D000001000400010024090F83D10012901D077
:1037E00001207047022180F83D100168CA6842F04C
:1037F0000102CA6000681349884214D0B0F1804FBA
:1038000011D0114988420ED0104988420BD010497E
:10381000884208D00F49884205D00F49884202D01B
:103820000E49884207D181680D4A1140062906D009
:10383000B1F5803F03D0016841F001010160002033
:1038400070470000002C01400004004000080040C8
:10385000000C004000340140004001400050014095
:10386000070001002DE9F0410D46040003D094F853
:103870003D0018B108E00120BDE8F081002084F887
:103880003C00204600F042F8022084F83D00206809
:1038900081681D4A11408160211D206802F062FA92
:1038A000206881688269066A2B68AF690B4340F221
:1038B00003318A4342EA0722A968EF6911434FF6B0
:1038C000FC429143EA6841EA07210A4329692F6AC9
:1038D000090141EA073111436A686D6926F0AA06B9
:1038E00046EA05152A4383602068816154F8480B35
:1038F0000262012004F81F096075A075E076207748
:1039000020750020B8E70000F8BFFEFF10B586B0B4
:10391000044614216846FCF7C5FC1149206888421A
:103920001CD11048816D41F002018165816D01F06B
:1039300002010591C16C41F01001C164C06C00210D
:1039400000F0100005900C2000900220CDE901014C
:10395000CDE9031069460448FEF732FB06B010BDFE
:1039600000040040001002400010004870472DE99C
:10397000F04104460068C66805694FF00007A907D2
:1039800013D5B10711D5F91E0161012020772068F8
:1039900080698007204602D0FFF7E8FF04E000F0CE
:1039A0005AF9204600F076FA2777680716D570078F
:1039B00014D521686FF00400086102202077206888
:1039C000806910F4407F204602D0FFF7CFFF04E06B
:1039D00000F041F9204600F05DFA2777280715D559
:1039E000300713D521686FF00800086104202077A4
:1039F0002068C0698007204602D0FFF7B7FF04E0C7
:103A000000F029F9204600F045FA2777E80616D598
:103A1000F00614D521686FF01000086108202077A7
:103A20002068C06910F4407F204602D0FFF79EFF57
:103A300004E000F010F9204600F02CFA2777E807A0
:103A400008D0F00706D021686FF001000861204619
:103A500000F0B2FA280601D4A80408D5300606D52D
:103A600021686FF4025008612046FFF746FDE80523
:103A700008D5300606D521686FF4807008612046AD
:103A8000FFF73AFD680608D5700606D521686FF085
:103A900040000861204600F099FAA80608D5B00653
:103AA00006D521686FF0200008612046FFF726FD4B
:103AB000E80208D5F00206D521686FF4801008618D
:103AC0002046FFF772FDA80208D5B00206D521688E
:103AD0006FF4001008612046FFF766FD680208D504
:103AE000700206D521686FF4800008612046FFF758
:103AF0005DFD28020AD5300208D521686FF4000068
:103B000008612046BDE8F041FFF716BEBDE8F08130
:103B1000F0B587B0044614216846FCF7C3FB2D4A74
:103B2000206800242C4902252C4E904224D1C86CD8
:103B300040F00200C864C86C00F002000590C86C38
:103B400040F00100C864C86C062700F00100059031
:103B500050140090CDE90154CDE903476946304641
:103B6000FEF72EFAE8010090CDE90154CDE90347B4
:103B700069464FF0904028E0194A904227D1C86C1E
:103B800040F00400C864C86C00F004000590C86CE4
:103B900040F00200C864C86C694600F0020005905D
:103BA0004FF4E6500090CDE901540420CDE90340E4
:103BB0000C48FEF705FA4FF400700090CDE901546F
:103BC0000A20CDE9034069463046FEF7F9F907B00F
:103BD000F0BD0000002C014000100240000400482D
:103BE000003401400008004870B5044690F83C00DD
:103BF000002501280BD0012084F83C000C2A1ED09F
:103C000007DC82B1042A12D0082A06D113E0022070
:103C100070BD102A17D0142A19D00125002084F86D
:103C20003C00284670BD206802F024F9F6E72068C1
:103C300002F078F9F2E7206802F0C8F9EEE72068B0
:103C400002F018FAEAE7206802F068FAE6E720686E
:103C500002F0A0FAE2E7704710B5040003D094F830
:103C60003D0010B107E0012010BD002084F83C00A9
:103C7000204600F023F8022084F83D00211D206832
:103C800002F070F8012084F8480084F83E0084F8BF
:103C90003F0084F8400084F8410084F8420084F832
:103CA000430084F8440084F8450084F8460084F812
:103CB000470084F83D00002010BD000008B50068F2
:103CC0000649884208D10648016E41F40061016648
:103CD000006E00F40060009008BD0000002C014060
:103CE0000010024070B5044690F83C0000260D46D6
:103CF00001280BD0012084F83C000C2A4AD007DCB4
:103D000082B1042A20D0082A06D131E0022070BDF9
:103D1000102A53D0142A63D00126002084F83C00D6
:103D2000304670BD206802F0A5F82068816941F036
:103D3000080181612068816921F0040181612068A6
:103D400081692A69114311E0206802F0EBF82068CC
:103D5000816941F4006181612068816921F4806199
:103D60008161206881692A6941EA02218161D4E781
:103D7000206802F02BF92068C16941F00801C16197
:103D80002068C16921F00401C1612068C1692A6904
:103D9000114311E0206802F06DF92068C16941F417
:103DA0000061C1612068C16921F48061C16120683E
:103DB000C1692A6941EA0221C161AEE7206802F0C7
:103DC000ADF92068016D41F0080101652068016DC1
:103DD00021F0040101652068016D2A69114311E099
:103DE000206802F0D7F92068016D41F40061016597
:103DF0002068016D21F4806101652068016D2A69E8
:103E000041EA0221016588E710B5040003D094F867
:103E10003D0010B107E0012010BD002084F83C00F7
:103E2000204600F023F8022084F83D00211D206880
:103E300001F098FF012084F8480084F83E0084F8DF
:103E40003F0084F8400084F8410084F8420084F880
:103E5000430084F8440084F8450084F8460084F860
:103E6000470084F83D00002010BD000008B5006840
:103E70000649884208D10648016E41F400510166A6
:103E8000006E00F40050009008BD000000340140B6
:103E9000001002407047000070B5044669B1042963
:103EA0000ED008290FD00C2910D0102911D094F869
:103EB0004300012810D0012070BD94F83E00F8E7BF
:103EC00094F83F00F5E794F84000F2E794F84100D9
:103ED000EFE794F84200ECE70220E9B304294AD066
:103EE00008294BD00C294CD010294DD084F8430020
:103EF0000122206801F0A4FF25492068254A264BAD
:103F0000264D88420BD0904209D0984207D0244ECB
:103F1000B04204D0234EB04201D0A84203D1466C37
:103F200046F4004646642068884211D0B0F1804FC4
:103F30000ED01D4988420BD01C49884208D01C492C
:103F4000884205D0904203D0984201D0A84209D1BE
:103F50008168184A114000E00AE0062906D0B1F550
:103F6000803F03D0016841F001010160002070BD75
:103F700084F83E00BCE784F83F00B9E784F84000CD
:103F8000B6E784F84100B3E784F84200B0E70000E8
:103F9000002C01400034014000400140005001402D
:103FA0000044014000480140000400400008004077
:103FB000000C00400700010000680349884201D15D
:103FC00001F00CBE7047000000100040704790F8F0
:103FD0008410012918D0012180F884102421C0F810
:103FE000881001680A680B6823F001030B6022F057
:103FF000005100224266036819602021C0F8881031
:1040000080F8842010467047022070477047704740
:1040100070B5044690F8840001281DD0012084F872
:1040200084002420C4F8880020680568026822F013
:10403000010202602068826822F060620A438260A6
:10404000204602F0E5F8206805602020C4F88800CA
:10405000002084F8840070BD022070BD70B5044655
:1040600090F8840001281DD0012084F884002420C9
:10407000C4F8880020680568026822F00102026026
:104080002068826822F060420A438260204602F083
:10409000BFF8206805602020C4F88800002084F85C
:1040A000840070BD022070BD7047704770470000EB
:1040B0002DE9F04103680446D86919689A6840F60A
:1040C0000F0528424FF000054FF002060AD187067F
:1040D0007ED501F0200702F0805C57EA0C0777D00C
:1040E000616F42E1B64FDFF8DCC2174001EA0C0C09
:1040F00057EA0C0C6CD05FEAC07C0CD05FEAC15C64
:1041000009D54FF0010CC3F820C0D4F8903043F02B
:104110000103C4F89030830709D5D30707D023687B
:104120001E62D4F8903043F00403C4F89030430783
:104130000AD5D30708D0266804233362D4F8903018
:1041400043F00203C4F8903003070CD501F02003BC
:104150003B4308D0266808233362D4F8903043F0FC
:104160000803C4F8903003050BD54B0109D5266828
:104170004FF400633362D4F8903043F02003C4F866
:104180009030D4F89030002B3DD0800609D501F056
:10419000200002F08051084303D0616F09B120462E
:1041A0008847D4F8900021688968490602D410F045
:1041B000280F2AD0204602F00DF9206880684006BA
:1041C0001ED52068083050E8001F21F0400100E0B3
:1041D00021E040E80012002AF3D1D4F8800078B141
:1041E00079498163D4F88000FDF796FD00280AD054
:1041F000D4F88000816B00E02046BDE8F04108471C
:104200002046FFF753FFBDE8F0812046FFF74EFF41
:10421000C4F89050F7E7D4F86CC02027BCF1010F28
:104220007ED15FEAC06C7BD55FEAC16C78D5102087
:10423000186220688068400651D5D4F880100A685A
:1042400050680004000C3ED0B4F85C3083423AD988
:10425000A4F85E000868006880062CD4206850E846
:10426000001F21F4807140E80012002AF6D1206876
:10427000083050E8001F21F0010140E80012002A38
:10428000F5D12068083050E8001F21F0400140E8D7
:104290000012002AF5D1C4F88C70E566206850E859
:1042A000001F21F0100140E80012002AF6D1D4F8D6
:1042B0008000FDF7F9FC2667B4F85C00B4F85E10E6
:1042C000401A81B207E0B4F85C1081429BD11068BB
:1042D000800698D526672046FFF798FE93E7B4F846
:1042E0005C00B4F85E10401A81B2B4F85E00002899
:1042F00089D0002987D0206850E8002F22F49072DE
:1043000040E80023002BF6D12D4BDB43206808301A
:1043100050E8002F1A4040E8002CBCF1000F00E0EC
:104320000EE0F3D1C4F88C70E5666567206850E84C
:10433000002F22F0100240E80023002BF6D1C9E73D
:10434000C60209D5560207D54FF4801018622046E0
:10435000BDE8F041FFF7A9BE03060AD501F08003CE
:1043600002F40002134304D0A16F00297FF444AF8C
:1043700049E7420611D54A060FD52046016851E8A3
:10438000002F22F0400241E80023002BF6D1C0F8B4
:104390008870856700F094F835E7020206D54A0078
:1043A00004D52046BDE8F041FFF77EBEC00195D59B
:1043B000002993DA2046BDE8F041FFF728BE00004F
:1043C0000100001020010004C963000810B50400BA
:1043D00003D0D4F8880010B107E0012010BD002000
:1043E00084F88400204600F027F82420C4F88800D0
:1043F0002068016821F001010160A06A10B1204627
:1044000001F028FF204602F00FF80128E6D02068CE
:10441000416821F4904141602068816821F02A01BF
:1044200081602068016841F0010101602046BDE81B
:10443000104001F073BF000030B59BB0044614215A
:1044400015A8FBF72FFF54216846FBF72BFF1A49ED
:10445000206888422ED102250024684600950294E7
:10446000FEF762FB08B1FCF737FB1448816D41F49D
:1044700000318165816D01F400311A91C16C41F008
:104480000101C164C06CCDE9165400F001001A901E
:104490000C2015900720CDE9184015A94FF0904049
:1044A000FDF78EFD002203212620FEF7A5FA262027
:1044B000FEF794FA1BB030BD0044004000100240EB
:1044C0007047072912D2DFE801F00A12181E242AC9
:1044D00004000068D0F8841341F0010104E0006892
:1044E000D0F8841341F00201C0F8841370470068CB
:1044F000D0F8841341F00401F6E70068D0F8841383
:1045000041F00801F0E70068D0F8841341F0100191
:10451000EAE70068D0F8841341F02001E4E700687E
:10452000D0F8841341F04001DEE770B503681A68E3
:10453000D3F8A0534C6922F020022646144324F0FD
:10454000C002202E2AD08C69022C27D0032C2AD01E
:10455000042C2DD022F0E00222F40064CA69224328
:1045600022F480640A6A224322F0C0644A6A224329
:1045700022F000648A6A2243CC6A22F0404242EA76
:10458000840222F000544A6B096B224325F48034E4
:1045900021431A600068C0F8A01370BD22F0C00269
:1045A00042F02002D8E722F0800242F04002D3E736
:1045B00022F0400242F08002CEE700002DE9F04FE9
:1045C0008024036804EBC1155C5924F070445C51ED
:1045D00003689A465E59E82404EBC114A64653F8D2
:1045E0000490E42404EBC114A3461C59D3F8A0336F
:1045F000576926F020063E43202F23D09769022FCB
:1046000020D0032F23D0042F26D026F4D07626F4F2
:104610000067D6693E4326F48067166A3E4326F05B
:10462000C067566A3E4326F00067966A3E4326F00E
:104630007047D66A3E43576B26F40036B7F1005FE9
:104640000FD010E026F4C07646F02006DFE726F40F
:10465000807646F08006DAE726F0800646F480761B
:10466000D5E746F4003626F04007966BD2F8508026
:10467000374327F4802C976D47EA0C07DFF8CCC04E
:1046800007EA0C0792F83CC048EA070829F03F0700
:104690000CF03F0C4CEA070C2CF00047D2F840C05D
:1046A0004CEA070C1EB924F48077546C3C43976C99
:1046B000B7F5606F02D0B7F5F05F01D1402E03D19E
:1046C00024F4F05647EA060424F48046D46C3443BC
:1046D000566D062927D2DFE801F003090F151B21CB
:1046E000126B23F4003343EA42031CE0126B23F401
:1046F000802343EA820316E0126B23F4002343EA8B
:10470000C20310E0126B23F4801343EA02130AE0A1
:10471000126B23F4001343EA421304E0126B23F4F8
:10472000800343EA82134AF80580056845F80EC005
:10473000056845F80B40D424026804EBC1115650BB
:104740000068C0F8A033BDE8F08F0000FFFF06FE50
:10475000FEE701688A69D243920701D400228A6287
:1047600000688169C943C90703D0816941F001012B
:10477000816170472DE9F047044600688846174676
:10478000816900263546C9064FF0200941D5102120
:10479000C1612FE0B8F1FF3F2CD0FDF7FFFCC11B3A
:1047A000414502D8B8F1000F24D12068416894F83F
:1047B000422001F480418369DB431B0415D4B1F529
:1047C000804F12D0202A10D0416841F480414160CE
:1047D000FDF7E4FC074608E0FDF7E0FCC01B1928E4
:1047E00003D945F02005012604E020688069C04314
:1047F0008006F1D420688069C043800602D5002E6F
:10480000C8D003E016B92168C1F81C9045F0040532
:10481000012621688869C20505D54FF4807245F0EC
:104820000105CA610126410506D522684FF4806161
:1048300045F00805D1610126800507D521684FF4B0
:10484000007045F00205C861012600E086B12046EF
:10485000FFF77FFF54F8240B4168074A114041607D
:10486000206A2843206284F81D900020A0772077DA
:104870003046BDE8F087000000E800FE10B5C1F347
:10488000090141EA02410068029C19432143426840
:1048900021F000414FF4806303EA5453024C234358
:1048A0009A430A43426010BDFF63FF032DE9F041C4
:1048B0001D4617460E460446DDF8188027E042469E
:1048C00029462046FFF756FF10B10120BDE8F081D0
:1048D000681C1CD0FDF762FCA0EB0800A84200D8C1
:1048E000ADB92068806936EA00000ED00020B842D9
:1048F0000DD154F8440F40F0200044F80409202062
:1049000060700020A0702070DFE70120EFE72068D2
:10491000806936EA000004D00020B842CFD00020E1
:10492000D4E70120F9E770B516460D4604461EE0AF
:10493000324629462046FFF71DFF08B1012070BD11
:10494000FDF72CFC801BA84200D885B9206880693F
:10495000C04380060BD554F8440F40F0200044F8C3
:104960000409202060700020A0702070E6E7206815
:104970008069C0438006DBD4002070BD70B5164648
:104980000D46044620E0324629462046FFF7F2FE57
:1049900008B1012070BD681C16D0FDF7FFFB801B1D
:1049A000A84200D885B920688069C04380070BD52C
:1049B00054F8440F40F0200044F8040920206070AF
:1049C0000020A0702070E4E720688069C043800761
:1049D000D9D4002070BD00000949084A10200A609F
:1049E000888000208871C87108720C310A6020220A
:1049F0008A808871C87108727047000000080048FA
:104A00002407002010B5104802F08CFB0E480C3033
:104A100002F088FB0C480024017A19B104720120CD
:104A2000FCF776F808480C30017A002907D00472A8
:104A30000648017821B1047005490120087010BDB5
:104A40007F210170F8E700002407002048000020C3
:104A50004900002000EB8100006E00F0F840704734
:104A60008068C0F3C00070478068C0F300007047E2
:104A70008068C0F3800070478068C0F38000704792
:104A8000C06810F4406F01D00020704701207047CB
:104A9000042303EAD15310B518444369C1F3045108
:104AA00007248C40A3438A401343436110BD00EBAD
:104AB0008100016E21F00041114301667047000042
:104AC00030B58BB0002408940994202168460A94DC
:104AD000FBF7E8FB25484FF0A041042501604FF4A7
:104AE0004031C0E9011485610121C460C0E904417D
:104AF000047744770222026280F824404FF49C62DB
:104B0000C2628A02026380F83810C46380F84040B1
:104B1000FCF726FB08B1FBF7DFFF08A91348089450
:104B2000FCF742F808B1FBF7D7FF114800900620C8
:104B3000CDE901050F480594CDE9030569460B4809
:104B4000FCF7DAF808B1FBF7C7FF0B4800900C2020
:104B500001907F20039069460448FCF7CDF80028B7
:104B600001D0FBF7B9FF0BB030BD00006C00002096
:104B70000200300400007F404000201930B589B0A9
:104B800020216846FBF78EFB214820490024016064
:104B90004FF44031C0E90114042585610121C4604E
:104BA000C0E90441047744770222026280F824407D
:104BB0004FF49C62C2628A02026380F83810C463B8
:104BC00080F84040FCF7CCFA08B1FBF785FF1148AC
:104BD00000900620CDE901050F480594CDE90305B5
:104BE00069460B48FCF788F808B1FBF775FF0B48DE
:104BF00000900C20019069460548FCF77DF80028DC
:104C000001D0FBF769FF09B030BD00000001005082
:104C1000D80000200800900C00007F400001802197
:104C200030B58BB0002408940994202168460A947A
:104C3000FBF738FB24482349042501604FF4403139
:104C4000C0E9011485610121C460C0E90441047711
:104C500044770222026280F824404FF49C62C262D0
:104C60008A02026380F83810C46380F84040FCF781
:104C700077FA08B1FBF730FF08A913480894FBF74F
:104C800093FF08B1FBF728FF104800900620CDE9FC
:104C900001050F480594CDE9030569460A48FCF76C
:104CA0002BF808B1FBF718FF0A4800900C20019080
:104CB00069460548FCF720F8002801D0FBF70CFFF7
:104CC0000BB030BD00040050440100200004002A55
:104CD00000007F400040C03A30B589B020216846CE
:104CE000FBF7E0FA21482049002401604FF44031ED
:104CF000C0E90114042585610121C460C0E90441B3
:104D0000047744770222026280F824404FF49C62C8
:104D1000C2628A02026380F83810C46380F840409F
:104D2000FCF71EFA08B1FBF7D7FE114800900620E9
:104D3000CDE901050F480594CDE9030569460B4807
:104D4000FBF7DAFF08B1FBF7C7FE0B4800900C2019
:104D5000019069460548FBF7CFFF002801D0FBF71B
:104D6000BBFE09B030BD000000050050B0010020BE
:104D70000200300400007F40000180210C4810B583
:104D80000A490160891541605021816000214FF47A
:104D90000032C0E9032141618161FCF7F7FC002882
:104DA00003D0BDE81040FBF797BE10BD0C020140D8
:104DB0009C03002000B58DB030216846FBF772FAE5
:104DC0001149104808600846FCF73BFF08B1FBF7A3
:104DD00083FE002002218DF804008DF8050002906A
:104DE000CDE906100091CDE9040103900246694621
:104DF0000548FCF70DFE002801D0FBF76DFE0DB055
:104E000000BD000000080050C0030020194808B58C
:104E1000816C41F004018164816C01F00401009116
:104E2000816C41F001018164806C002200F001007E
:104E3000009011460B20FDF7DFFD0B20FDF7CEFDA6
:104E400000220F210C20FDF7D7FD0C20FDF7C6FD39
:104E500000220F210D20FDF7CFFD0D20FDF7BEFD37
:104E600000220F210E20FDF7C7FDBDE808400E20EF
:104E7000FDF7B4BD001002402DE9F04786B01421C3
:104E80006846FBF70FFA4048C16C41F01001C1645D
:104E9000C16C01F010010591C16C41F02001C164A9
:104EA000C16C01F020010591C16C41F00401C164A5
:104EB000C16C01F004010591C16C41F00101C164B4
:104EC000C16C01F001010591C16C41F00201C164A6
:104ED000C16C01F002010591C16C41F00801C1648F
:104EE000C06CDFF8A88000F00800059000222021A7
:104EF0004046FDF74EF9DFF898904FF40046002247
:104F000031464846FDF745F9DFF888A04FF4E067E1
:104F1000002239465046FDF73CF900241020CDE927
:104F20000004694640460294FDF74AF820200090AC
:104F30000125CDE90154694640460394FDF740F848
:104F40003020CDE90004694613480294FDF738F893
:104F50000320CDE90004694648460294FDF730F885
:104F60000096CDE90154694648460394FDF728F8B8
:104F70000097CDE90154694650460394FDF720F8A7
:104F800006B0BDE8F08700000010024000100048A5
:104F900000040048000C00480008004810B5A0B00C
:104FA0000024189419941A94602168461B94FBF706
:104FB00079F931481C941D942E491E94C0E90014BF
:104FC0008460FDF723F908B1FBF786FD0C212A4820
:104FD000FDF7EAF808B1FBF77FFD0A212648FDF747
:104FE000C7F908B1FBF778FD44F26820CDE9180451
:104FF00005201A9008201B9018AA06211E48FDF7CC
:10500000D8F908B1FBF768FD0094019401200294DF
:10501000CDE90340059406940794C0060894CDE9B1
:1050200009400D940B940C946A460621124817947B
:10503000FDF790FA08B1FBF74FFD0A201C901CAB5E
:10504000012206210C48FDF7F1F908B1FBF744FDF8
:1050500042F234101C901CAB022206210648FDF7D8
:10506000E5F908B1FBF738FD0348FDF743F920B037
:1050700010BD000000680140D4030020134810B5A3
:10508000114901601249416000210122C0E9021268
:10509000016141618161C1610162FDF7F7FA08B107
:1050A000FBF71AFD00210948FDF79CFA08B1FBF750
:1050B00013FD00210548FDF7C0FA002803D0BDE824
:1050C0001040FBF709BD10BD00540040D004002083
:1050D0003612624010B598B00024149415941C2127
:1050E0000DA81694FBF7DEF834216846FBF7DAF8D2
:1050F00023482249C0E900144FF6FF71C0E902417C
:10510000046144618461FEF7A7FD08B1FBF7E4FC8C
:105110001494159414A91A481694FEF749FA08B184
:10512000FBF7DAFC0D940E940F94109411941294E2
:1051300000220DA912481394FEF756FD08B1FBF7A3
:10514000CBFC00944FF40050CDE9044003940003DD
:10515000CDE9084001940294069407940A940B94B4
:10516000694607480C94FEF7CBF908B1FBF7B4FC8D
:105170000348FEF7CDFC18B010BD0000002C014024
:105180002405002010B58CB024216846FBF78AF86E
:105190000024174809940A9414490B94C0E9001498
:1051A0004FF6FF71C0E90241046184610320CDE93B
:1051B00000040120CDE902040A210491CDE9054053
:1051C000CDE9074169460A48FEF74CFB08B1FBF7F9
:1051D00083FC099409A906480B94FEF7E9F9002815
:1051E00001D0FBF779FC0CB010BD000000040040BA
:1051F000700500203EB500240F48009401940D492D
:1052000002940160A921C0E9011440F2E731C160B4
:1052100080218161FEF791FA08B1FBF75DFC0094F3
:10522000694605480294FEF7C3F9002801D0FBF750
:1052300053FC3EBD00100040BC05002070B598B086
:105240000024149415941C210DA81694FBF72AF839
:1052500034216846FBF726F832483149202580E89A
:10526000320042F23411C0E903148026C0E9054639
:10527000FEF7CAFD08B1FBF72FFCCDE9145414A9C1
:1052800028481696FEF794F908B1FBF725FC602034
:105290000D90C820CDE90E041094119412940022B0
:1052A0000DA920481394FEF71DFD08B1FBF714FC6F
:1052B00040F6B8300E9004220DA91A48FEF712FDF0
:1052C00008B1FBF709FC41F658300E9008220DA9F1
:1052D0001448FEF707FD08B1FBF7FEFB4FF4006032
:1052E00000904010CDE901041420CDE903044FF4EF
:1052F0000050CDE905040003CDE908400794C01231
:105300000A94CDE90B4069460648FEF7F9F808B162
:10531000FBF7E2FB0348FEF7FBFB18B070BD000093
:105320000034014008060020184810B516490160F5
:105330004FF461214160002181600C22C160C0E90D
:1053400004128161C161016241628162FFF73EF82E
:1053500008B1FBF7C1FB00210C48FEF77FFE08B146
:10536000FBF7BAFB00210948FEF752FE08B1FBF734
:10537000B3FB0648FEF72BFE002803D0BDE8104023
:10538000FBF7AABB10BD00000044004054060020FB
:10539000FEE7FEE710B58D2000F0A0F8142000F025
:1053A0009DF8BDE81040AF2000F098B810B5AE20D1
:1053B00000F094F8202000F091F8102000F08EF812
:1053C000B02000F08BF8C82000F088F8002000F032
:1053D00085F8102000F082F8402000F07FF881204E
:1053E00000F07CF8DF2000F079F8A12000F076F8DA
:1053F000A62000F073F8A82000F070F83F2000F01D
:105400006DF8A42000F06AF8D32000F067F80020BF
:1054100000F064F8D52000F061F8F02000F05EF8AC
:10542000D92000F05BF8222000F058F8DA2000F0D4
:1054300055F8122000F052F8DB2000F04FF8202041
:1054400000F04CF88D2000F049F8142000F046F8E8
:1054500000F008F800F00CF9BDE81040AF2000F0B3
:105460003DB800004FF480610148FAF71BBF00000F
:10547000BD0700203CB51C78059DCDE900455D6861
:10548000E41D5B78E408203A14FB02F203FB0252AD
:1054900000F084F83CBD2DE9F8411E4614468846CC
:1054A0000546079F09E03346414628460097FFF727
:1054B000E1FF7078641C2844C5B22278002AF2D13A
:1054C000BDE8F88138B532240B46024678210248FF
:1054D0000094FDF739F938BDD00400200249487026
:1054E00002210148FFF7EEBF460000202DE9FC41F4
:1054F00080460720CDE9000301F00704CE081546D9
:1055000002FA04F01F46C2B223464146304600F07C
:105510008BF8002C0CD0601EC0B2CDE90007C4F19E
:10552000080025FA00F2701C0023414600F07CF8C8
:10553000BDE8FC812DE9FC4301F007041646CF08C5
:105540009846814601F0070104EB080206FA01F0D3
:10555000099D082A16D90721CDE90015C2B22346B4
:105560004946384600F060F808EB04000938C0B23C
:10557000CDE90005C4F1080026FA00F2781C0023EA
:10558000494607E0521ED1B2CDE90015C2B223460A
:105590004946384600F048F8BDE8FC832DE9FF4F46
:1055A00082B01E460F989346C70800F007008A464F
:1055B0000025019018E0029800240BEB050900EB90
:1055C00005080DE014FB06F111F809200AEBC400F0
:1055D000C1B208F0FF00109BFFF788FF641CE4B223
:1055E000BC42EFD36D1CEDB2B542E4D30198002864
:1055F00016D006FB07F800240AEBC7050EE010984A
:10560000009008EB040102981BF801202044E9B245
:10561000C0B2019BFFF78EFF641CE4B2B442EED32C
:1056200006B0BDE8F08F0000F0B50828DDE905649C
:1056300019D2802917D20CB1D243D2B2FF25761CE1
:1056400005FA06F4C3F10803084F44EA0206DD40F8
:1056500007EBC017044B785CA2432E43AA433040AB
:105660001A7010437854F0BD44000020BD0700209C
:1056700070B5104D40200024287005F1810604F11A
:10568000B000C0B2FFF72AFF0020FFF727FF10206D
:10569000FFF724FF06EBC4118022681CFAF7E9FD2E
:1056A00081210448FFF70EFF641CE4B2082CE6D306
:1056B00070BD00003C07002030EE601A80ED021A39
:1056C00090ED000AD0ED011A60EE010A90ED030A98
:1056D00001EE810AD0ED051A70EE800AF4EEE01AB0
:1056E000F1EE10FA07D2B5EEC01AC0ED041AF1EED1
:1056F00010FA0ED314E0D0ED061AF4EEE01AF1EE33
:1057000010FA09DDB5EEC01AC0ED041AF1EE10FA78
:1057100006DD80ED030A03E080ED030AC0ED040A14
:1057200090ED040A7047000080EC020A9FED060A23
:1057300080ED020A80ED030A80ED040A80ED051A6F
:10574000C0ED061A704700000000000070EE602AED
:10575000B1EE002AF0EE005AC0ED0D2A90ED030ADA
:10576000D0ED020AD0ED013AB2EE005A60EE801A96
:1057700061EE010A3D4A60EE800A60EE800AB0EEFA
:10578000600A01EE820A30EE021A90ED000A70EE15
:10579000233A20EE203A23EE824AF0EE434A00EE0E
:1057A000023A44EE214A04EE613A40EE024A83EEA8
:1057B000014AC4EE813A60EE254A24EEA06A00EE6A
:1057C000456A10EEA55A41EEC20AC6EE014A70EED5
:1057D000821AC0ED043A13EE901A914285EE010A46
:1057E000C0ED054A80ED064AC1EE810A9FED201A00
:1057F00080ED070AC0ED080A01DD80ED041A1D4A9C
:105800000169914201D980ED041A90ED091AD0ED99
:10581000041A24EE812A01EEA22AD0ED0A1A04EE1F
:10582000212AD0ED0B1A00EE612A90ED0C0A80EDD2
:105830000A1AC0ED092AC0ED0C1A00EEC02AB0EE1B
:10584000420A80ED0B0AD0ED0F0AF4EEC00AF1EE29
:1058500010FA06D3D0ED100AF4EEC00AF1EE10FAF9
:1058600001DDB0EE600A80ED0E0A704700803B4516
:105870000000000000803BC5C0ED032A80EC030A55
:1058800080ED040A9FED0D0A80ED050A80ED060A01
:1058900080ED070A80ED080A80ED090A80ED0A0A0A
:1058A00080ED0B0A80ED0C0A80ED0D0A80ED0E0AEA
:1058B000C0ED0F1A80ED102A7047000000000000B4
:1058C00007490878420607480068426C02D542F44E
:1058D000805201E022F480524264002048707047F8
:1058E000480000200806002070B53A482DED048BD2
:1058F0000578EDB300240120FBF760F8B0EE409A84
:105900000020FBF75BF8F0EE408A0720FBF756F823
:10591000B0EE408A0620FBF751F82F48F0EE400A1F
:105920000178022938D0032936D000222948EB0714
:1059300000F1040007D090ED000AB4EEC90AF1EEC0
:1059400010FA00D201246B0710D57AB190ED020A4B
:10595000B4EEE80AF1EE10FA06D3B1EE400AB4EE66
:10596000E80AF1EE10FA01DD44F00404AB0700E0B0
:105970000EE008D590ED010AB4EEC80AF1EE10FA77
:1059800001D244F00204EB0611D5032906D00EE043
:105990000020BDEC048B70BD0122C7E790ED040A26
:1059A000B4EEC80AF1EE10FA01DD44F01004290744
:1059B00009D542B190ED030AB4EEE00AF1EE10FA17
:1059C00001D244F0080414B12046FBF7A7F82046A2
:1059D000DFE70000480000200807002003480068B7
:1059E000416C21F40041416470470000080600202A
:1059F0000548007818B17F2803D004A0704705A09F
:105A0000704705A0704700004800002050415254E4
:105A1000000000004F4646004F4E2000034800683B
:105A2000416C41F4004141647047000008060020C9
:105A3000FFF7D4BF7047000010B50E48FDF7CCFE4D
:105A400000210D48FEF728FA04210B48FEF724FA3E
:105A500008210948FEF720FA00210748FDF704FE57
:105A600004210548FDF700FE08210348FDF7FCFD71
:105A7000002010BDBC050020080600207047000073
:105A800010B504462DED028BB0EE408A8021FAF766
:105A900009FCDFED0F1A9FED0F1ADFED0F0A9FEDE6
:105AA0000F0A2046FFF740FEF0EE482ABDEC028BBD
:105AB00004F11C00BDE810409FED092ADFED091A32
:105AC000B1EE041AF2EE0E0AB0EE080AFFF7D4BEE9
:105AD0000000C8C20000C842A69B443ACDCCCC3ED0
